:100000000C9446000C9465000C9465000C946500FB
:100010000C9465000C9465000C9465000C946500CC
:100020000C9465000C9465000C9465000C946500BC
:100030000C9465000C9437010C9465000C946500D9
:100040000C9465000C9465000C9465000C9465009C
:100050000C9465000C9465000C9465000C9465008C
:100060000C9465000C9465000C9465000C9465007C
:100070000C9465000C9465000C9465000C9465006C
:100080000C9465000C9465000C94650011241FBE4F
:10009000CFEFD0E4DEBFCDBF11E0A0E0B1E0E0EFF4
:1000A000F3E000E00BBF02C007900D92A631B1074C
:1000B000D9F721E0A6E1B1E001C01D92A632B20756
:1000C000E1F70E9497010C94F6010C940000CF9385
:1000D000C82F8A3019F48DE00E9467008091C0001B
:1000E00085FFFCCFC093C60080E090E0CF910895DB
:1000F0008091240190912501009719F0019781F0DA
:10010000089581E090E0909325018093240120914F
:10011000000120931C0190932201809321010895F6
:1001200081E090E09093250180932401809121014A
:1001300090912201FC01E050FF4F208120931C018F
:100140008230910530F40196909322018093210131
:1001500008951092220110922101089580911D01AD
:1001600090911E018130910559F018F0029779F0B5
:1001700014C081E090E090931E0180931D010DC09A
:1001800082E090E090931E0180931D0106C081E003
:1001900090E090931E0180931D0180911D0190912C
:1001A0001E018130910519F0029721F008951092F7
:1001B0002301089581E080932301089580911F0118
:1001C00090912001009719F0019751F00FC081E044
:1001D00090E09093200180931F0110921B0106C0B4
:1001E00081E090E09093200180931F0180911F0196
:1001F00090912001019779F48091230190E0880F7C
:10020000991F880F991F880F991F90911C01977053
:10021000892B80931B0108958BE0809381008DE7EB
:1002200090E0909389008093880082E080936F0033
:100230001092850010928400809103019091040136
:10024000A0910501B09106018093160190931701CA
:10025000A0931801B09319018FB780688FBF0895DC
:1002600010928100089581E080931A0108951F92F1
:100270000F920FB60F9211240BB60F922F933F934C
:100280004F935F936F937F938F939F93AF93BF939E
:10029000EF93FF938091160190911701A09118019F
:1002A000B09119010197A109B109809316019093AA
:1002B0001701A0931801B0931901892B8A2B8B2B5E
:1002C00091F40E9433018091030190910401A09167
:1002D0000501B09106018093160190931701A09338
:1002E0001801B0931901FF91EF91BF91AF919F91C8
:1002F0008F917F916F915F914F913F912F910F90CF
:100300000BBE0F900FBE0F901F90189560930301C6
:100310007093040180930501909306016093160188
:1003200070931701809318019093190108958FEF2E
:1003300084B915B8109225011092240110921E0163
:1003400010921D011092200110921F0110921B01AA
:1003500061E070E080E090E00E9486010E940C0164
:10036000412C512C3201812C912C5401C12CD12CC7
:10037000760188EEC81683E0D806E104F10428F07F
:100380000E947800C12CD12C760188EE881683E07B
:100390009806A104B10428F00E94AE00812C912C93
:1003A000540188EE481683E058066104710428F071
:1003B0000E94DE00412C512C320180911B0185B935
:1003C00080911A018823E1F310921A018FEFC81A65
:1003D000D80AE80AF80A8FEF881A980AA80AB80A11
:1003E0008FEF481A580A680A780AC3CFF894FFCFEB
:1003F000010204010000000000000200000000678C
:06040000000000000000F6
:00000001FF
