:100000000C9446000C9465000C9465000C946500FB
:100010000C9465000C9465000C9465000C946500CC
:100020000C9465000C9465000C9465000C946500BC
:100030000C9465000C9491010C9465000C9465007F
:100040000C9465000C9465000C9465000C9465009C
:100050000C9465000C9465000C9465000C9465008C
:100060000C9465000C9465000C9465000C9465007C
:100070000C9465000C9465000C9465000C9465006C
:100080000C9465000C9465000C94650011241FBE4F
:10009000CFEFD0E4DEBFCDBF11E0A0E0B1E0E0E003
:1000A000F5E000E00BBF02C007900D92A631B1074A
:1000B000D9F721E0A6E1B1E001C01D92AA32B20752
:1000C000E1F70E94F1010C947E020C940000CF93A2
:1000D000C82F8A3019F48DE00E9467008091C0001B
:1000E00085FFFCCFC093C60080E090E0CF910895DB
:1000F0008091280190912901009719F0019781F0D2
:10010000089581E090E09093290180932801209147
:10011000000120931D0190932401809323010895F1
:1001200081E090E090932901809328018091230140
:1001300090912401FC01E050FF4F208120931D018C
:100140008230910530F4019690932401809323012D
:1001500008951092240110922301089580911E01A8
:1001600090911F018130910559F018F0029779F0B4
:1001700014C081E090E090931F0180931E010DC098
:1001800082E090E090931F0180931E0106C081E001
:1001900090E090931F0180931E0180911E01909129
:1001A0001F018130910519F0029721F008951092F6
:1001B0002701089581E0809327010895809121010E
:1001C00090912201009719F0019751F00FC081E042
:1001D00090E0909322018093210110921C0106C0AF
:1001E00081E090E090932201809321018091210190
:1001F000909122010197D9F48091270190E0880F16
:10020000991F880F991F880F991F90912001292FFE
:10021000217030E022953295307F3227207F3227BF
:1002200090911D019770892B822B80931C0108955A
:1002300080912501909126018130910569F018F097
:100240000297E1F034C081E090E090932601809322
:1002500025011092200131C080911B0182FF07C04F
:1002600082E090E0909326018093250126C081E0F2
:1002700090E090932601809325011FC080911B017F
:1002800082FF0EC082E090E09093260180932501CA
:1002900081E090912001911180E0809320010DC0B8
:1002A00081E090E0909326018093250106C081E0D3
:1002B00090E09093260180932501809125019091F3
:1002C0002601019711F41092200108958BE080938C
:1002D00081008DE790E0909389008093880082E010
:1002E00080936F001092850010928400809103012A
:1002F00090910401A0910501B0910601809316012F
:1003000090931701A0931801B09319018FB78068DB
:100310008FBF089510928100089581E080931A01A3
:1003200008951F920F920FB60F9211240BB60F92E1
:100330002F933F934F935F936F937F938F939F93ED
:10034000AF93BF93EF93FF938091160190911701A4
:10035000A0911801B09119010197A109B1098093E9
:10036000160190931701A0931801B0931901892BDE
:100370008A2B8B2B91F40E948D0180910301909127
:100380000401A0910501B09106018093160190939C
:100390001701A0931801B0931901FF91EF91BF913C
:1003A000AF919F918F917F916F915F914F913F910D
:1003B0002F910F900BBE0F900FBE0F901F901895AE
:1003C00060930301709304018093050190930601EB
:1003D000609316017093170180931801909319018F
:1003E0000895CF93DF9300D000D0CDB7DEB711B81A
:1003F0008FEF82B984B915B81092290110922801A3
:1004000010921F0110921E011092220110922101E0
:10041000109226011092250110921C0110921B01CE
:1004200061E070E080E090E00E94E0010E946601DF
:10043000812C912C5401C12CD12C7601412C512CB2
:10044000320119821A821B821C8280B180958093AE
:100450001B0189819A81AB81BC818C329140A105BD
:10046000B10530F00E94780019821A821B821C822A
:1004700088EE481683E058066104710428F00E9453
:10048000AE00412C512C320192E089169104A10456
:10049000B10428F00E941801812C912C5401A2E093
:1004A000CA16D104E104F10428F00E94DE00C12C38
:1004B000D12C760180911C0185B980911A01882385
:1004C000E1F310921A0189819A81AB81BC81019676
:1004D000A11DB11D89839A83AB83BC839FEF491A09
:1004E000590A690A790AAFEFCA1ADA0AEA0AFA0A55
:1004F000BFEF8B1A9B0AAB0ABB0AA7CFF894FFCFBA
:10050000010204010000000000000200000000677A
:06051000000000000000E5
:00000001FF
